:100000000C9459040C9481040C9481040C94810484
:100010000C9481040C9481040C9481040C9481044C
:100020000C9481040C9481040C9481040C9481043C
:100030000C9481040C9481040C9481040C9481042C
:100040000C94C4170C9481040C9400170C94DA16C9
:100050000C9481040C9481040C9481040C9481040C
:100060000C9481040C9481040100E00F0007100936
:10007000170B408A4B0A0D0F15160FE10F001A1BC4
:10008000020D05303543020A0932360FB101A0B422
:100090000102C0021715C10141C503000A80B60163
:1000A000023601483A0155E90100F704A9512C82B2
:1000B0001100FF7829000100E901201100FF64D13F
:1000C00003007119D0030701083601483A0105C140
:1000D0000410100202C006003100000102C5010434
:1000E000D2020144C80F04673504080624013740D2
:1000F00003100880002A04000000EF2B0500000117
:100100003F8F29002C002E89298F2B02E200E40169
:10011000E510E601E710E870F200EA00EB20EC3CA5
:10012000EDC8E938F1011B1A1A022461255C183662
:1001300019011F88FF051F80FF051F90FF051FD4B1
:10014000FF05170536092838FF28283C0200030060
:10015000040005EF060007000801093F0100B9038C
:10016000FF8357FFFAB30400000606B60125B0016D
:1001700068CC0105B10600151C1C83AAC0065050AE
:10018000013C1E08B4070240002A2A0D783A0155A6
:100190003601C0350100440200021100FF9629001B
:1001A000FF320100CB05392C003402CF0300C130EF
:1001B000E803850078EA020000ED0464031281F789
:1001C0000120C00123C10110C5023E28C7018636A7
:1001D00001483A0155B1020018B603088227F2011E
:1001E00000260101E00F0F312B0C0E084EF13707EE
:1001F00010030E0900E10F000E1403110731C1486E
:10020000080F0C31360F1100FF9629002C0000005A
:100210000100FF003200010000010200000703009E
:1002200030100400000008000202090000000A006B
:1002300000000C0000000D0000000F000000100086
:100240000000110007001200000013000000FF0072
:10025000C8001000901611002702FF0032001200A3
:100260001A00FF0032001300001829002A00FF00C6
:100270003200300000003100000032000000350084
:10028000060236000808370007003800010239006E
:1002900000003C0000003D000000200000002100A4
:1002A0000000500000005100EF0052000000530019
:1002B0003F01600000A7610003006A000000900099
:1002C00010009200000093000300950000119700B9
:1002D00000009800000007003301536F66747761D7
:1002E0007265206279205A64656E6F2053656B6574
:1002F00072616B20286329323031362C2076302E03
:100300003200475052532074726166666963206CF4
:100310006F6767657200475052532074726166665A
:100320006963206C6F676765722E20536F66747700
:10033000617265206279205A64656E6F2053656B27
:100340006572616B2028632920323031362E00001F
:10035000000000003E5B4F5B3E3E6B4F6B3E1C3E21
:100360007C3E1C183C7E3C181C577D571C1C5E7F35
:100370005E1C00183C1800FFE7C3E7FF00182418B4
:1003800000FFE7DBE7FF30483A060E2629792926E9
:10039000407F050507407F05253F5A3CE73C5A7FD3
:1003A0003E1C1C08081C1C3E7F14227F22145F5F29
:1003B000005F5F06097F017F006689956A60606063
:1003C000606094A2FFA29408047E040810207E209E
:1003D0001008082A1C08081C2A08081E10101010F3
:1003E0000C1E0C1E0C30383E3830060E3E0E060039
:1003F0000000000000005F00000007000700147FFD
:10040000147F14242A7F2A12231308646236495663
:1004100020500008070300001C2241000041221C5C
:10042000002A1C7F1C2A08083E0808008070300043
:100430000808080808000060600020100804023E58
:100440005149453E00427F40007249494946214199
:10045000494D331814127F1027454545393C4A4908
:100460004931412111090736494949364649492947
:100470001E00001400000040340000000814224157
:100480001414141414004122140802015909063EE0
:10049000415D594E7C1211127C7F494949363E41DB
:1004A0004141227F4141413E7F494949417F0909FC
:1004B00009013E414151737F0808087F00417F4197
:1004C000002040413F017F081422417F40404040CE
:1004D0007F021C027F7F0408107F3E4141413E7F26
:1004E000090909063E4151215E7F0919294626491D
:1004F00049493203017F01033F4040403F1F2040F4
:10050000201F3F4038403F631408146303047804FD
:10051000036159494D43007F4141410204081020C5
:10052000004141417F04020102044040404040003C
:100530000307080020545478407F28444438384446
:10054000444428384444287F385454541800087EC2
:10055000090218A4A49C787F0804047800447D4014
:10056000002040403D007F1028440000417F4000B3
:100570007C047804787C080404783844444438FCCB
:100580001824241818242418FC7C0804040848544F
:1005900054542404043F44243C4040207C1C20400C
:1005A000201C3C4030403C44281028444C90909003
:1005B0007C4464544C44000836410000007700003D
:1005C000004136080002010204023C2623263C1E9C
:1005D000A1A161123A4040207A385454555921550E
:1005E000557941225454784221555478402054552D
:1005F00079400C1E5272123955555559395454547C
:100600005939555454580000457C410002457D42FB
:100610000001457C407D1211127DF0282528F07CD8
:10062000545545002054547C547C0A097F49324972
:100630004949323A4444443A324A4848303A4141BE
:10064000217A3A42402078009DA0A07D3D4242425E
:100650003D3D4040403D3C24FF2424487E494366C4
:100660002B2FFC2F2BFF0929F620C0887E090320A1
:10067000545479410000447D413048484A32384062
:1006800040227A007A0A0A727D0D19317D262929C5
:100690002F28262929292630484D402038080808C7
:1006A0000808080808382F10C8ACBA2F102834FAE8
:1006B00000007B000008142A142222142A14085572
:1006C00000550055AA55AA55AAFF55FF55FF000031
:1006D00000FF00101010FF00141414FF001010FF92
:1006E00000FF1010F010F0141414FC001414F700A4
:1006F000FF0000FF00FF1414F404FC141417101F73
:1007000010101F101F1414141F00101010F0000000
:1007100000001F101010101F10101010F01000001B
:1007200000FF101010101010101010FF100000002B
:10073000FF140000FF00FF00001F10170000FC0462
:10074000F414141710171414F404F40000FF00F745
:1007500014141414141414F700F7141414171410A8
:10076000101F101F141414F4141010F010F00000D7
:100770001F101F0000001F14000000FC140000F0F8
:1007800010F01010FF10FF141414FF141010101F9D
:1007900000000000F010FFFFFFFFFFF0F0F0F0F0AE
:1007A000FFFFFF0000000000FFFF0F0F0F0F0F38CB
:1007B00044443844FC4A4A4A347E02020606027E19
:1007C000027E0263554941633844443C04407E2024
:1007D0001E2006027E020299A5E7A5991C2A492A35
:1007E0001C4C7201724C304A4D4D303048784830C4
:1007F000BC625A463D3E494949007E0101017E2ABC
:100800002A2A2A2A44445F444440514A44404044EE
:100810004A51400000FF0103E080FF000008086B20
:100820006B083612362436060F090F06000018181A
:100830000000001010003040FF0101001F01011EE8
:1008400000191D1712003C3C3C3C00000000000059
:10085000000008000201000003040700000000007F
:100860000000007C3C3E5E2B3D3F2F5B5D3B2C2A15
:10087000225C0000000000240027002A000102047E
:100880000810204080010204081020010204081012
:100890002000000000250028002B000404040404AC
:1008A000040404020202020202030303030303001E
:1008B000163411241FBECFEFD8E0DEBFCDBF12E04B
:1008C000A0E0B1E0E8EAFEE602C005900D92AA3889
:1008D000B107D9F726E0AAE8B2E001C01D92A63B15
:1008E000B207E1F714E0C9E5D4E004C02197FE01A6
:1008F0000E94AB35C835D107C9F70E94042A0C9471
:1009000052370C940000FC01DB0112968D919C91F2
:100910001397938382838EEF91E091838083149663
:100920008C911497848315968C91159785831696D0
:100930004D915D916D917C911997468357836087A6
:1009400071871A964D915D916D917C911D974287AB
:100950005387648775871E964D915D916D917C914B
:10096000519746875787608B718B52968C9152971F
:10097000828B53964D915D916D917C915697438BEF
:10098000548B658B768B57964D915D916D917C91D3
:100990005A97478B508F618F728F5B968D919C9188
:1009A0005C97948F838F0895DC015996ED91FC91AB
:1009B0005A973097B9F083899489A589B689428579
:1009C000538564857585841B950BA60BB70B811524
:1009D00020E89207A105B10538F08FEF9FE7A0E06E
:1009E000B0E0089580E090E00895CF93DF931F92E8
:1009F000CDB7DEB76983DC01ED91FC910280F38114
:100A0000E02D41E050E0BE016F5F7F4F09950F90F0
:100A1000DF91CF910895EDE6F3E0248135812C5BE1
:100A20003740322F2227330F4781242B4681A0E203
:100A30004A9FA0011124242B352BDC012D933C93DC
:100A40008185B0E28B9F900111249085892F90E0E1
:100A5000982F8827990F990F990F822B932B228516
:100A600030E035952795822B932BFB019183808372
:100A70000895FC01818D928D009711F00C94E51280
:100A800008951F93CF93DF93CDB7DEB76D970FB661
:100A9000F894DEBF0FBECDBFAB011C821B822EEFD0
:100AA00031E03A8329831E8221E0BC01CE01019608
:100AB0000E94C51D11E0811102C010E004C0CE01EA
:100AC00001960E94421C812F6D960FB6F894DEBFEE
:100AD0000FBECDBFDF91CF911F9108956F927F928E
:100AE0008F929F92BF92CF92DF92EF92FF920F93DD
:100AF0001F93CF93DF93CDB7DEB7ED970FB6F89482
:100B0000DEBF0FBECDBF8C017B011CA21BA28EEFEE
:100B100091E09AA389A31EA2C8010E9441058111F8
:100B2000A6C023E3A701B801CE0181960E94C51D8E
:100B30008823C9F081E08DA384E08EA3CE01819645
:100B40000E94511D882379F0CE0181960E94E51202
:100B5000882349F06FA578A989A99AA941E00E9444
:100B60000F11811102C090E07EC02BA980E2289F66
:100B7000900111242F573C4F21153105A1F380E13D
:100B8000F901838780E2DE01119601900D928A952A
:100B9000E1F7F901E488F588C28CD38CFE01329626
:100BA000CE010C9620E22193E817F907E1F78EE2D7
:100BB000B82EB982ECADFDAD88AD99ADAAADBBAD97
:100BC0000297A109B109058404C0880F991FAA1FC3
:100BD000BB1F0A94D2F746855785608971893C010D
:100BE0004D01640E751E861E971EC401B30141E0BF
:100BF0000E940F11882309F4B6CFFE8AED8ADC8E9D
:100C0000CB8E80E2FE013196A1E8B3E001900D9217
:100C10008A95E1F7BA82F80185818250823038F0F6
:100C20004789508D618D728DCA019B0104C080E09F
:100C300090E020E030E03E8B2D8B9C8F8B8F80E20C
:100C4000FE013196A1EAB3E001900D928A95E1F799
:100C500080E490E0A0E0B0E08BA79CA7ADA7BEA782
:100C60000E94D410982F81E0911101C080E0ED9690
:100C70000FB6F894DEBF0FBECDBFDF91CF911F91AD
:100C80000F91FF90EF90DF90CF90BF909F908F904B
:100C90007F906F900895CF93DF93EC01898D9A8DAB
:100CA000009739F481E090E09B838A8380E090E0B4
:100CB0000BC0FC01138212820E94D113E98DFA8DC0
:100CC00022813381232B71F7DF91CF910895EF9229
:100CD000FF920F931F93CF93DF93EC017B018A0167
:100CE0001B821A8288EE93E0A0E0B0E08C839D83A3
:100CF000AE83BF8386E092E0998388838DE190E0A4
:100D00000E94B1359A8F898F009779F02DE1F70114
:100D1000DC0101900D922A95E1F74CE050E0B8011A
:100D2000CE010C960E941037188EDF91CF911F9143
:100D30000F91FF90EF9008958EBD00000DB407FE57
:100D4000FDCF8EB508958FEF0C949C068CBD9DBD94
:100D500008952F923F924F925F926F927F928F925F
:100D60009F92AF92BF92CF92DF92EF92FF920F933A
:100D70001F93CF93DF9300D0CDB7DEB7FC01858101
:100D8000882309F4D9C0848180FFD6C021E02A835A
:100D9000438954896589768982859385A485B5853B
:100DA000481759076A077B0709F41A826F013A81CD
:100DB000832F90E0DE0111964D013F01B6E06B0EEE
:100DC000711C892B09F47DC0D6011A964D915D9155
:100DD0006D917C911D975A01B1E0BB22F6012581EE
:100DE0001A012B0189E056944794379427948A95E9
:100DF000D1F7838D948D223061F4FC01828D938D27
:100E0000A48DB58DBC01CD01620D731D841D951D92
:100E100045C0DC0114961C9111501221A114B1049B
:100E2000D1F4111118C0452B462B472B51F4F60174
:100E30008789908DA18DB28D86839783A087B18796
:100E40000AC0468157816085718593010E94F8111F
:100E5000882309F471C0F601238D348D8681978132
:100E6000A085B1850297A109B109AC01BD01F901C5
:100E7000058404C0440F551F661F771F0A94D2F7DC
:100E800086859785A089B189840F951FA61FB71FF6
:100E9000BC01CD01610F711D811D911DD6011496FC
:100EA0002C9126FF14C000910001109101012091A6
:100EB000020130910301601771078207930751F512
:100EC00006C0FA81FF23C1F1898190E037C040E07C
:100ED0000E940F11882381F1F501EF57FC4FD401D7
:100EE000CF010196E817F90719F021912D93FACF58
:100EF000EFEF8E1A9E0AF60182859385A485B5854B
:100F00000196A11DB11D82879387A487B58780E0D4
:100F100090E057CF740101E010E09501AB01BC01F6
:100F200080918105909182050E94B71F882321F04E
:100F3000BFEF8B1A9B0ADFCF8FEF9FEF0F900F90C1
:100F4000DF91CF911F910F91FF90EF90DF90CF90A5
:100F5000BF90AF909F908F907F906F905F904F90D9
:100F60003F902F900895FC01818D928D009711F094
:100F70000C94A9068FEF9FEF08950F931F93CF93C3
:100F8000DF93FC01818D928D0097B9F0EF010E94F3
:100F9000A9068C010F3F8FEF180791F0898D9A8D6C
:100FA000FC0142855385648575854150510961096D
:100FB00071090E943B13C80105C080E090E002C0A7
:100FC0008FEF9FEFDF91CF911F910F910895FB015C
:100FD0008A3028F490E39083805D818307C06AE0C3
:100FE0000E944635805D8083905D91831282CF019F
:100FF00008950F931F93CF93DF938C01FC01C08161
:101000000C2E000CDD0BCE010E94E336F80121818D
:10101000892B41F02053E097822FFAE0CF9F800D7B
:10102000112402C080ED820FDF91CF911F910F91AB
:1010300008954F925F926F927F928F929F92AF929C
:10104000BF92CF92DF92EF92FF920F931F93CF93B5
:10105000DF93CDB7DEB7C05AD1090FB6F894DEBF23
:101060000FBECDBF6E018BE8C80ED11C86E1E0E754
:10107000F2E0D60101900D928A95E1F788E1EFE266
:10108000F1E0DE01AD58BF4F01900D928A95E1F776
:10109000E0918A02F0918B02CF0164E670E00E9439
:1010A0005235605DD60115966C932AE030E0B901A7
:1010B0000E94523590E3960FD60116969C93CF016D
:1010C000B9010E945235805DF601878380917303D8
:1010D000622F0E944635805D8187905D9287809166
:1010E00074030E944635805D8387905D948780916C
:1010F00075030E944635805D8587905D9687809157
:1011000076030E944635805D8787905D908B0E94B4
:101110001128882391F0809184069091850600978C
:1011200061F00E94421C80918406909185060E9485
:10113000463610928506109284065E01FEE1AF0EDF
:10114000B11C6CE476E0C5010E9483041C821B8202
:101150008EEF91E09A8389831E82CE0101964C0125
:10116000250186013C016FE270E0C8010E9405374D
:10117000009709F43FC0D8012C912F3219F40F5F6A
:101180001F4FF1CF801B8D3008F08CE0E82EF12C42
:10119000A701B801CE01885A9F4F0E941037E8E599
:1011A000F0E0EC0FFD1FEE0DFF1D1082C4010E9448
:1011B000421C21E0AE01485A5F4FB201C4010E94B7
:1011C000C51D81110CC01EAE1DAE8EEF91E09CAF0F
:1011D0008BAF21961FAE219700E010E012C00E0DDC
:1011E0001F1DC2010E94421C942D852D2401892EB1
:1011F000982EB9CF0C191D09B201CE01CB960E94D1
:1012000083040C0D1D1DF8018081811109C0BE01F0
:10121000655C7F4FC3010E9483044AE552E047C0EA
:1012200019A218A28EEF91E09F8F8E8F1BA221969C
:101230008FAD2197811116C06C961FAE1EAE6C97B4
:1012400088EE93E0A0E0B0E0A0968CAF9DAFAEAF8B
:10125000BFAFA097E3961FAE1EAEE397A5961FAE55
:10126000A5972BC0825023E1A801823040F46CE4A2
:1012700076E0C5010E94C51D81110DC0DDCFBE0104
:10128000655C7F4FC5010E94C51D8823A9F2CE0170
:10129000CB960E94421C49A95AA96BA97CA9C501F9
:1012A0000E943B13B501C3010E948304A801B3014E
:1012B000CE01885A9F4F0E9467066C968EAD9FADF7
:1012C0006C9790936E0680936D06A0968CAD9DAD45
:1012D000AEADBFADA09780936F0690937006A093BC
:1012E0007106B0937206A4968CAD9DADAEADBFAD48
:1012F000A4978093730690937406A0937506B09399
:1013000076068DE0E8E5F0E0EC0FFD1F3C96A7E7E0
:10131000B6E001900D928A95E1F7E3968EAD9FAD10
:10132000E397909385068093840648E150E0BE01E0
:101330006D587F4F8BE696E00E944B068BE696E059
:101340000E94390585E090E0909393068093920681
:101350008EE790E090939506809394068FEF9FEF31
:10136000909399068093980690939706809396069B
:1013700082E080939A0620918E0630918F0622504B
:101380003109E12CF12C00E110E04DE750E061E083
:1013900070E086E896E00E9445230E9411288111A2
:1013A00003C08CE592E002C0C60104960E940C289E
:1013B000C056DF4F0FB6F894DEBF0FBECDBFDF9132
:1013C000CF911F910F91FF90EF90DF90CF90BF9042
:1013D000AF909F908F907F906F905F904F90089507
:1013E0008F929F92AF92BF92CF92DF92EF92FF9235
:1013F0000F931F93CF93DF93CDB7DEB766970FB6EA
:10140000F894DEBF0FBECDBF86E1E0E7F2E0DE017B
:10141000119601900D928A95E1F710922D06109287
:101420002B0610922806109227068AE08093260643
:101430000E94B8176B017C01809126060E94ED275F
:1014400061E0809126060E9432171FB7F8948091C0
:101450005A03811124C0E5EAF8E08491E7E8F8E056
:101460009491E82FF0E0EE0FFF1FED58F74FA59194
:10147000B491EC91E92321F461E08AE00E943217F3
:101480008AE00E94ED278CB580618CBD8CB58064AC
:101490008CBD8DE00E94ED278BE00E94ED278091AE
:1014A0005A038F5F80935A031FBF82E58093200603
:1014B0001092210680912006909121060E94A60696
:1014C0001AE08FEF0E949C061150D9F782E296E055
:1014D0000E941A1F20E030E0A90160E082E296E05D
:1014E0000E94551F182F80932C06813049F00E94CE
:1014F000B8176C197D09613D774060F381E054C0F5
:101500002AEA31E040E050E068E082E296E00E94A2
:10151000551F82FF03C010932D060EC014E00E94D9
:10152000A30680932C061150D1F78A3A11F082E07D
:101530003BC082E080932D0680912D06823021F001
:10154000812C912C540105C0812C912CA12C30E4CC
:10155000B32E20E030E0A90167E382E296E00E942A
:10156000551FA501940169E282E296E00E94551F91
:1015700080932C06882349F00E94B8176C197D09C6
:10158000613D774030F388E00FC080912D068230B6
:1015900001F520E030E0A9016AE382E296E00E94D2
:1015A000551F882341F086E08093270682E296E06B
:1015B0000E94301FE4C00E94A306807C803C19F486
:1015C00083E080932D060E94A3060E94A3060E943A
:1015D000A30682E296E00E94301F80E580932006F9
:1015E0001092210681E00E94D528882329F080915D
:1015F0005106882341F0C3C080E00E94D52888238B
:1016000009F4BEC0F4CF80914506803109F582E02F
:10161000809351061092630610926406109265063C
:10162000109266068091460690914706A0E0B0E0D1
:1016300025E0880F991FAA1FBB1F2A95D1F7809319
:101640005F0690936006A0936106B09362061FC088
:10165000803209F094C083E080935106409148069F
:101660005091490660914A0670914B06409363067B
:101670005093640660936506709366062FE536E026
:101680008EE296E00E947C12882309F478C08EE2F4
:1016900096E0909368068093670681E080935006F9
:1016A000109252061092530610925406109255064C
:1016B000109256061092570610925806109259062C
:1016C00010925A0610925B0610925C0610925D060C
:1016D00010925E068BE095E090935C0380935B0331
:1016E0001E8261E475E0CE0101960E941D288111E1
:1016F00006C06EE675E0CE0101960E941D2819868F
:1017000088EEE82E83E0F82E04E610E09AE0C92E79
:10171000D12C80918A0290918B020196B7010E9490
:1017200052359C0190938B0280938A02B8010E94EB
:101730005235605D6E83B6010E94523580E3860F9C
:101740008F83C901B6010E945235805D888761E4AC
:1017500075E0CE0101960E941D288111DACF61E467
:1017600075E0CE0101960E941D28811109C06EE628
:1017700075E0CE0101960E941D2881E001C080E045
:1017800066960FB6F894DEBF0FBECDBFDF91CF9146
:101790001F910F91FF90EF90DF90CF90BF90AF908F
:1017A0009F908F90089508952F923F924F925F924D
:1017B0006F927F928F929F92AF92BF92CF92DF9261
:1017C000EF92FF920F931F93CF93DF93CDB7DEB7C6
:1017D0006B970FB6F894DEBF0FBECDBF4C015A8396
:1017E00049831F830E83FD82EC82CB82DC015896F5
:1017F0004D915C9159974115510509F0A5C0189676
:101800008D919C911997681779070CF060C11A9611
:101810008D919C911B97E981FA81E817F9070CF0EB
:1018200056C1D12CCB013B81F6E03F9F800D911D2D
:101830001124181619060CF04AC1C60133E0880FAE
:10184000991F3A95E1F749815A81840F951F18161F
:1018500019060CF03CC157968C91811103C0203BB6
:1018600008F02F5F55E0259F900111247E876D873A
:101870005B01212CC901861B970B99878887A98159
:10188000BA811896BB87AA87B5E02B1641F0E88588
:10189000F985EA0DFB1DE15BFC4F349001C0312C52
:1018A00069807A80230130FE12C0D401ED91FC9151
:1018B000BB81B13031F40480F581E02D2E813F8170
:1018C00018C00684F785E02DEE80FF801CC0EC81F7
:1018D000FD812E813F81E217F307E1F0D401ED9104
:1018E000FC91BB81B13051F40480F581E02D2C8155
:1018F0003D81A301B501C40109950CC00684F7859B
:10190000E02DEC80FD8086019601A2016D857E852B
:10191000C40109953694EFEF6E1A7E0A4C0C5D1CDB
:101920002A853B856216730609F0BDCF23943FEFED
:10193000A31AB30A4D855E854C0D5D1D5E874D87EC
:1019400056E02512A1CFC3C0FA0134969491329784
:10195000A591B491291BCD01E7E02E9F800D911D2B
:101960001124FA01259134913A8B298BFC012590A1
:101970003490FC01329634913887319644914C87EB
:101980003296A491319684915B81523048F02A2F8F
:101990000A2E000C330B682E082E000C770804C0AA
:1019A000612C712C20E030E09B81C92ED12C2C9D24
:1019B000A0012D9D500D3C9D500D1124FA01E60F04
:1019C000F71FF88BEF871C82B12CA12CEA2FAA0FEE
:1019D000FF0B9B012E0F3F1F3B872A873885630F24
:1019E000711DAB014E0F5F1F5F8B4E8BA981BA81BA
:1019F000A80FB11D87FDBA95B98FA88F9C85A91630
:101A000008F065C08A2D90E0AC01460D571D4C9D35
:101A100090014D9D300D5C9D300D1124A981BA813E
:101A2000A20FB31FBE87AD87EA85FB85FB8FEA8FC8
:101A30004F845888FC812A85F21BFB8B488D598D79
:101A4000480F591F5D8B4C8B8B89FA8D8F0F2A8D18
:101A50003B8D4E895F892417350799F1877041F4D2
:101A6000C1010196E989FA89E20DF31DB4901C01C8
:101A7000B7FE1EC0D401ED91FC91BB81B13061F481
:101A80000480F581E02D2E813F814C895D896A8D2E
:101A90007B8DC40109950CC00684F785E02DEE808E
:101AA000FF80860196014D855E85B201C4010995CE
:101AB000BB0CEA8DFB8D3196FB8FEA8F4C0C5D1CC5
:101AC000C3CF5C818885580F5C83A39497CF6B96B6
:101AD0000FB6F894DEBF0FBECDBFDF91CF911F913F
:101AE0000F91FF90EF90DF90CF90BF90AF909F90BD
:101AF0008F907F906F905F904F903F902F900895C0
:101B0000AF92BF92CF92EF92FF920F931F93CF931A
:101B1000DF93EC01262F888D998D009709F042C044
:101B20006A3069F42C898E859F8538E0239F800D6B
:101B3000911D11249F878E871D861C86ACC06D3039
:101B400009F4A9C08E898823C1F03C898C859D85C4
:101B500046E0349F800D911D1124488559858417D6
:101B600095075CF01D861C868E859F85E8E03E9F6C
:101B7000800D911D11249F878E87EA88FB88088934
:101B800019894E855F856C857D85CC88CE010E9444
:101B9000D40B2C898C859D85F6E02F9F800D911D9F
:101BA000112441C06A3079F41D861C862C89FC0101
:101BB0003696E4918E859F852E9F800D911D112470
:101BC0009F878E8768C06D3009F465C0AC014C5F9B
:101BD0005F4FFA013491631708F45DC03196E491C8
:101BE000E61708F458C0FA014491362F341BFC0163
:101BF0003296A590B490F7E03F9FA00CB11C112441
:101C0000F501329634913196E491332311F0E111CC
:101C10000DC0F5013496E4912C898C859D85E29F59
:101C2000800D911D11249D878C8735C0F501359657
:101C300044915E89552311F16C89E32FF0E0E40FA4
:101C4000F11D47FDFA956E9FD0016F9FB00D1124D5
:101C50004C855D854A0F5B1FE885F9854E175F0748
:101C60006CF01D861C86FC013696E4918E859F855E
:101C70006E9F800D911D11249F878E87EA88FB88B7
:101C8000088919894E855F856C857D85CC88CE0154
:101C90000E94D40BBECF81E090E0DF91CF911F91E5
:101CA0000F91FF90EF90CF90BF90AF900895EF927B
:101CB000FF920F931F93DC01ED91FC9111971A96FF
:101CC0000D911C911B9718962D913C9119970684A4
:101CD000F785E02D7B0140E050E060E070E0099581
:101CE0001F910F91FF90EF9008956F927F928F92C6
:101CF0009F92AF92BF92CF92DF92EF92FF920F939B
:101D00001F93CF93DF936C015A014801EB013B0114
:101D1000620E731EC615D70574F4D601ED91FC91C1
:101D20000084F185E02D87019401A501BE01C60163
:101D300009952196EFCFDF91CF911F910F91FF90E1
:101D4000EF90DF90CF90BF90AF909F908F907F905B
:101D50006F900895EF92FF920F931F93DC01ED9126
:101D6000FC91260F371F215031090680F781E02DA5
:101D700078018A0109951F910F91FF90EF900895C6
:101D8000EF92FF920F931F937801DC01ED91FC918C
:101D9000240F351F8901015011090680F781E02DBC
:101DA0009B0109951F910F91FF90EF9008956F92FD
:101DB0007F928F929F92AF92BF92CF92DF92EF92DB
:101DC000FF920F931F93CF93DF93EC014B015A01C6
:101DD00069013801E881F9810284F385E02D8701EA
:101DE0000995E881F981A501460D571D415051091A
:101DF0000284F385E02D9601B401CE010995E881B6
:101E0000F9810084F185E02D9301A501B401CE0193
:101E10000995E881F981C80CD91CB6016150710996
:101E20000084F185E02D9301A501CE010995DF9194
:101E3000CF911F910F91FF90EF90DF90CF90BF90C7
:101E4000AF909F908F907F906F9008952F923F92C8
:101E50004F925F926F927F928F929F92AF92BF92BA
:101E6000CF92DF92EF92FF920F931F93CF93DF9366
:101E700000D01F92CDB7DEB74C017B836A836A0125
:101E8000590117019801241B350B37FF03C0319509
:101E900021953109C5014A815B81841B950B97FF10
:101EA00003C091958195910951E059838217930759
:101EB00014F019820BC09A2D8B2D5801092F182F61
:101EC0009A818B81DB82CA82C92ED82E8A819B811E
:101ED000A816B9065CF49C2D8D2D6801092F182FCA
:101EE0009A818B81BB82AA82A92EB82E2501AA8154
:101EF000BB814A1A5B0A38016C187D0877FE03C063
:101F0000719461947108720157FE03C0BFEFEB1A20
:101F1000FB0AF594E794C016D1061CF00FEF1FEFF3
:101F20001FC001E010E01CC0D401ED91FC91B9810B
:101F30000480F581E02D9101BB23C1F04A815B81D2
:101F4000B601C4010995E618F708F7FE04C0C00EF3
:101F5000D11EE40CF51CEA81FB813196FB83EA83F8
:101F60004A815B81A416B506FCF604C0A6016A810D
:101F70007B81E7CF0F900F900F90DF91CF911F9152
:101F80000F91FF90EF90DF90CF90BF90AF909F9018
:101F90008F907F906F905F904F903F902F9008951B
:101FA0008F929F92AF92BF92CF92DF92EF92FF9269
:101FB0000F931F93CF93DF93EC01CB017A0169015B
:101FC000EB8DFC8D30812FA1232320832A8D322F8E
:101FD0003B7F09F08AC03D89323091F0333029F1DE
:101FE000313089F54FEE50E0BA01601B710B5C0196
:101FF0004A018E189F08860164017C01CB0125C02F
:102000006FEE70E0AB014C195D096B01C81AD90A7B
:102010008FE391E0BC01601B710B8C010E191F094D
:10202000580146017B01CA0110C04FE351E0BA01DB
:102030006C197D095A01A81AB90A4701680185017E
:10204000C7017B0102C05A014B01AC01243049F5A4
:1020500067E370E0CE010E943419A60166E370E0E8
:10206000CE010E943419A70169E370E0CE010E94FD
:102070003419A80168E370E0CE010E943419A4016C
:1020800060E270E0CE010E943419A50161E270E0C7
:10209000CE010E94341940E062E2CE010E949E19F6
:1020A00070C060E570E0CE010E943419A60161E5C0
:1020B00070E0CE010E943419A70162E570E0CE0104
:1020C0000E943419A80163E570E0CE010E94341922
:1020D000A40160E270E0CE010E943419A50161E222
:1020E00070E0CE010E9434194CC02130C9F49B012C
:1020F00043E062E0CE010E94BE18970147E066E02F
:10210000CE010E94BE18960145E064E0CE010E9417
:10211000BE18980149E068E0CE010E94BE1831C0A7
:102120003EEF320F323018F02550223050F5092E94
:10213000000CAA0BBB0BDC0199278827A601DD0C3C
:10214000660B770B9A01AB01282B392B4A2B5B2BA3
:102150006AE2CE010E940E18C701FF0CAA0BBB0B4E
:10216000DC0199278827A801110F660B770B9A01CC
:10217000AB01282B392B4A2B5B2B6BE2CE010E9443
:102180000E18EB8DFC8D90818BA1892B8083DF91C4
:10219000CF911F910F91FF90EF90DF90CF90BF9064
:1021A000AF909F908F90089580915D038823A9F14F
:1021B0004091000150910101609102017091030171
:1021C00021E833E080918105909182050E944B20A7
:1021D000811102C080E0089540915E0350915F0339
:1021E00060916003709161034115510561057105AE
:1021F00091F021E833E080918105909182050E9461
:102200004B20882339F310925E0310925F031092E3
:1022100060031092610310925D0381E008958F9234
:102220009F92AF92BF92EF92FF920F931F93CF9323
:102230004B015C01C42F8091000190910101A0919C
:102240000201B091030188159905AA05BB0501F1AA
:102250000E94D410811102C080E020C081E8E82EE5
:1022600083E0F82E00E012E020E030E0B501A401A8
:1022700080918105909182050E94B71F882361F3A8
:102280008092000190920101A0920201B09203019C
:1022900080915D03C82BC0935D0381E0CF911F91B6
:1022A0000F91FF90EF90BF90AF909F908F90089507
:1022B0004F925F926F927F928F929F92AF92BF9256
:1022C000CF92DF92EF92FF920F931F93CF93DF9302
:1022D000EC016A017B012801390142305105610599
:1022E000710510F480E073C089859A85AB85BC8543
:1022F0000196A11DB11D84179507A607B70790F396
:102300008B889C88AD88BE888F89803129F4BB2753
:10231000AF2D9E2D8D2D09C0DB01CA0147E0B6957A
:10232000A795979587954A95D1F7880E991EAA1E6D
:10233000BB1E8091000190910101A0910201B0911A
:10234000030188169906AA06BB0679F48F898031A5
:10235000A1F4DD24EE24FF24C601880F991FFC019F
:10236000EF57FC4F5182408219C040E0C501B401D3
:102370000E940F118111EACFB5CFE894C7F8DD2490
:10238000EE24FF24C601880F991F880F991FFC01B6
:10239000EF57FC4F408251826282738280915D03CD
:1023A000816080935D038A89823080F08D819E8177
:1023B000AF81B885880E991EAA1EBB1E80925E034F
:1023C00090925F03A0926003B092610381E0DF917D
:1023D000CF911F910F91FF90EF90DF90CF90BF9022
:1023E000AF909F908F907F906F905F904F900895E7
:1023F0008F929F92AF92BF92CF92DF92EF92FF9215
:102400000F931F93CF93DF93FC0181859285A38562
:10241000B4850196A11DB11D84179507A607B707BE
:1024200010F480E05CC083899489A589B689C78946
:10243000C03129F4852E962EA72EBB2409C04A014F
:102440005B01C7E0B694A79497948794CA95D1F797
:10245000E9016A017B018F01BC01CD01680D791D85
:102460008A1D9B1D8090000190900101A0900201A7
:10247000B0900301681579058A059B0599F4F80168
:1024800087898031A9F4B701A601552766277727E8
:10249000440F551FFA01EF57FC4F80819181A0E056
:1024A000B0E018C040E00E940F118111E8CFB9CF11
:1024B000B701A6014F77552766277727440F551F89
:1024C000440F551FFA01EF57FC4F80819181A28183
:1024D000B381BF7088839983AA83BB8381E0DF9136
:1024E000CF911F910F91FF90EF90DF90CF90BF9011
:1024F000AF909F908F9008954F925F926F927F92CE
:10250000AF92BF92CF92DF92EF92FF920F931F9301
:10251000CF93DF9300D000D0CDB7DEB78C014983D5
:102520005A836B837C835901C12CD12C7601412CB9
:1025300082E0582E612C712C49815A816B817C81FB
:102540009E012F5F3F4FC8010E94F811882351F16F
:10255000D301C201F801058404C0880F991FAA1F86
:10256000BB1F0A94D2F7C80ED91EEA1EFB1E498172
:102570005A816B817C818789803129F088EF9FEFB8
:10258000AFEFBFE004C088EF9FEFA0E0B0E04817D6
:1025900059076A077B0780F2F501C082D182E28287
:1025A000F38281E00F900F900F900F90DF91CF9109
:1025B0001F910F91FF90EF90DF90CF90BF90AF9061
:1025C0007F906F905F904F9008950F931F93CF93DC
:1025D000DF93EC018D81882309F447C08C8187FF4C
:1025E0003EC06E857F858889998941E00E940F11E0
:1025F0008823D9F18A8920E2829FC0011124FC013D
:10260000EF57FC4F309789F12D81223040F44B89F0
:102610005C896D897E89448F558F668F778F4F894E
:10262000588D698D7A8D8C010F571C4FF801538F8F
:10263000428F758B648BE0915B03F0915C03309764
:1026400059F0BC0169567C4F87569C4F0995F8019B
:10265000808D918D938B828B8C818F778C83DF9192
:10266000CF911F910F910C94D41080E0DF91CF9106
:102670001F910F9108958F929F92AF92BF92CF9228
:10268000DF92EF92FF920F931F93CF93DF93EC01B2
:102690008D81811102C080E077C00B891C892D8952
:1026A0003E890417150726073707A8F36A017B013F
:1026B000823029F4CA86DB86EC86FD860DC0C11403
:1026C000D104E104F10451F41E821F821886198698
:1026D0001A861B861C861D8681E056C08A849B84D0
:1026E000AC84BD84EB8DFC8D258530E0275F3F4FAA
:1026F000B501A4014150510961097109022E04C0BC
:1027000076956795579547950A94D2F7D701C601F4
:102710000197A109B10904C0B695A795979587952A
:102720002A95D2F784179507A607B70720F08928BE
:102730008A288B2849F44F89588D698D7A8D4E836C
:102740005F836887798704C0841B950BA60BB70B42
:102750004C015D018E010A5F1F4F81149104A10499
:10276000B10409F4A7CF4E815F816885798598010E
:102770008B8D9C8D0E94F81191E0891A9108A10817
:10278000B1088111EACF87CFDF91CF911F910F91CF
:10279000FF90EF90DF90CF90BF90AF909F908F9081
:1027A00008952F923F924F925F926F927F928F92F5
:1027B0009F92AF92BF92CF92DF92EF92FF920F93D0
:1027C0001F93CF93DF9300D000D0CDB7DEB78C013D
:1027D0006B013A01DC0115968C9115978130C9F493
:1027E00014968C9181FF15C082FF1DC0F8014389AA
:1027F00054896589768982859385A485B5858417F2
:102800009507A607B70779F0C8010E943B1381110D
:102810000AC081E090E0D80113969C938E931297A2
:1028200080E090E048C1430184C0D8015B968D915F
:102830009C915C97FC0154802FEF250D1A012B0110
:1028400039E056944794379427943A95D1F7522E0D
:1028500052207A01F1E0FF22552009F476C080E091
:1028600092E08E199F0954018815990508F45C01BE
:10287000D8015B962D913C915C9716968D919D9118
:102880000D90BC91A02D0297A109B109F901058411
:1028900004C0880F991FAA1FBB1F0A94D2F7468550
:1028A000578560897189840F951FA61FB71F9C01EA
:1028B000AD01250D311D411D511D19012A01A11424
:1028C00032E0B30609F088C08091000190910101C7
:1028D000A0910201B091030182159305A405B505ED
:1028E00059F48FEF9FEFDC01809300019093010179
:1028F000A0930201B09303019601B201A10180915E
:102900008105909182050E944B20882309F481CF94
:102910009EEFD91A8A189B08F80182859385A485B1
:10292000B5858A0D9B1DA11DB11D82879387A48744
:10293000B587D8011A964D915D916D917C911D9747
:102940008114910409F071CF87C0E114F10409F0FA
:1029500086CF16964D915D916D917C911997411599
:1029600051056105710559F457968D919D910D9012
:10297000BC91A02D0097A105B10541F521C09E0194
:102980002F5F3F4F0E94F811882309F44ACF8981B5
:102990009A81AB81BC81F801238D348DF90127899F
:1029A000203129F048EF5FEF6FEF7FE004C048EF80
:1029B0005FEF60E070E084179507A607B70730F077
:1029C000C8010E944E1C81114ACF23CFF801868393
:1029D0009783A087B18743CFE114F10429F5D8018B
:1029E0001A964D915D916D917C911D9753968D91A5
:1029F0009D910D90BC91A02D481759076A077B0740
:102A000098F00E94D410882309F403CF209200018B
:102A100030920101409202015092030180915D03C6
:102A2000816080935D0308C041E0C201B1010E9452
:102A30000F11882309F4EDCED601F701EF57FC4FB3
:102A4000CF018A0D9B1DE817F90719F02D912193ED
:102A5000FACFCA0CDB1C5ECF5396CD90DD90ED9083
:102A6000FC90569714968C91C416D506E606F70688
:102A700040F4F801438B548B658B768B806884839C
:102A80000DC020915B0330915C03232B39F061145E
:102A9000710421F08068D80114968C93F801848128
:102AA00083FD02C0C30107C0C8010E94E51288234C
:102AB00009F4AFCEF7CF0F900F900F900F90DF91EA
:102AC000CF911F910F91FF90EF90DF90CF90BF902B
:102AD000AF909F908F907F906F905F904F903F90BE
:102AE0002F900895CF93DF931F92CDB7DEB7698300
:102AF00041E050E0BE016F5F7F4F0E94D1130F9005
:102B0000DF91CF910895CF92DF92EF92FF920F93D2
:102B10001F93CF93DF936C017A018B01C0E0D0E06B
:102B2000CE15DF0589F0D8016D918D01D601ED91AB
:102B3000FC910190F081E02DC6010995892B11F4DB
:102B40007E0102C02196ECCFC701DF91CF911F918A
:102B50000F91FF90EF90DF90CF900895FC01918D41
:102B6000828D981761F0828DDF01A80FB11D5D96EF
:102B70008C91928D9F5F9F73928F90E008958FEF5D
:102B80009FEF0895FC01918D828D981731F0828D11
:102B9000E80FF11D858D90E008958FEF9FEF089568
:102BA000FC01918D228D892F90E0805C9F4F821BCC
:102BB00091098F739927089583E895E00E94D015B5
:102BC00021E0892B09F420E0822F0895FC01848DF7
:102BD000DF01A80FB11DA35ABF4F2C91848D90E047
:102BE00001968F739927848FA689B7892C93A08922
:102BF000B1898C9180648C93938D848D981306C0D9
:102C00000288F389E02D80818F7D80830895EF9283
:102C1000FF920F931F93CF93DF93EC0181E0888F96
:102C20009B8D8C8D981305C0E889F989808185FD7D
:102C300024C0F62E0B8D10E00F5F1F4F0F7311276E
:102C4000E02E8C8DE8120CC00FB607FCFACFE88995
:102C5000F989808185FFF5CFCE010E94E615F1CF7D
:102C60008B8DFE01E80FF11DE35AFF4FF0820B8FB1
:102C7000EA89FB898081806207C0EE89FF896083D1
:102C8000E889F98980818064808381E090E0DF9128
:102C9000CF911F910F91FF90EF900895CF93DF9305
:102CA000EC01888D8823C9F0EA89FB89808185FD44
:102CB00005C0A889B9898C9186FD0FC00FB607FCA5
:102CC000F5CF808185FFF2CFA889B9898C9185FFE6
:102CD000EDCFCE010E94E615E7CFDF91CF910895A9
:102CE00080E090E0892B29F00E94DC1581110C9482
:102CF000000008953FB7F8948091670390916803AE
:102D0000A0916903B0916A0326B5A89B05C02F3F27
:102D100019F00196A11DB11D3FBFBA2FA92F982F01
:102D20008827820F911DA11DB11DBC01CD0142E07C
:102D3000660F771F881F991F4A95D1F708950E9443
:102D4000DE36EF92FF920F931F93CF93DF938C01A8
:102D50007B01C0E0D0E0F701EC0FFD1F649166231A
:102D600061F0D801ED91FC910190F081E02DC80156
:102D70000995892B11F02196EECFCE01DF91CF91ED
:102D80001F910F91FF90EF9008956115710579F0F3
:102D9000FB0101900020E9F73197AF01461B570B6B
:102DA000DC01ED91FC910280F381E02D099480E03B
:102DB00090E008951F920F920FB60F9211242F9357
:102DC0003F934F935F936F937F938F939F93AF93B3
:102DD000BF93EF93FF9383E895E00E94E615FF9180
:102DE000EF91BF91AF919F918F917F916F915F9183
:102DF0004F913F912F910F900FBE0F901F901895FC
:102E00001F920F920FB60F9211242F938F939F93BF
:102E1000EF93FF93E0919305F09194058081E09109
:102E20009905F0919A0582FD12C0908180919C05D0
:102E30008F5F8F7320919D05821751F0E0919C0563
:102E4000F0E0ED57FA4F958F80939C0501C080818B
:102E5000FF91EF919F918F912F910F900FBE0F9047
:102E60001F90189590E0FC01E15BF74F3491FC0155
:102E7000E358F74F2491FC01E556F74FE491EE2318
:102E800009F43BC0332339F1333091F038F4313059
:102E9000A9F0323001F584B58F7D12C0373091F042
:102EA0003830A1F03430B9F4809180008F7D03C0B8
:102EB000809180008F77809380000DC084B58F77DC
:102EC00084BD09C08091B0008F7703C08091B000AD
:102ED0008F7D8093B000F0E0EE0FFF1FEF56F74FAD
:102EE000A591B4918FB7F894EC91611103C020952E
:102EF0002E2301C02E2B2C938FBF08958F929F926B
:102F0000AF92BF92CF92DF92EF92FF926B017C0162
:102F10000E947A164B015C01C114D104E104F10452
:102F2000F1F00E947A16DC01CB0188199909AA09EF
:102F3000BB09883E9340A105B10570F321E0C21A98
:102F4000D108E108F10888EE880E83E0981EA11CE4
:102F5000B11CC114D104E104F10419F7DDCFFF90D5
:102F6000EF90DF90CF90BF90AF909F908F9008959B
:102F70002FB7F894609163037091640380916503A7
:102F8000909166032FBF08951F920F920FB60F9274
:102F900011242F933F938F939F93AF93BF9380916F
:102FA000630390916403A0916503B091660330912F
:102FB000620323E0230F2D3720F40196A11DB11DDC
:102FC00005C026E8230F0296A11DB11D20936203C0
:102FD0008093630390936403A0936503B0936603A7
:102FE0008091670390916803A0916903B0916A038F
:102FF0000196A11DB11D8093670390936803A09370
:103000006903B0936A03BF91AF919F918F913F91F4
:103010002F910F900FBE0F901F901895CF92DF92B7
:10302000EF92FF92FC01A38DB48D9C9187A189231F
:103030008C93A58DB68D9C9180A589238C938BB1A3
:10304000962F9C7F8370892B8BB985B163708C7FA1
:10305000682B65B9A78DB0A19C9181A589238C931C
:10306000A78DB0A19C9185A1892B8C93A58DB68D40
:103070009C9184A1892B8C9383E290E0DC011197D1
:10308000F1F77BB1C52EDD24EE24FF246C2D6C7F7F
:103090007370762B7BB965B17C2D73706C7F672B59
:1030A00065B9A78DB0A17C9161A567236C93A78DAD
:1030B000B0A17C9165A1672B6C93DC011197F1F7AE
:1030C0007BB16A01EE24FF246C2D6C7F7370762B2C
:1030D0007BB965B17C2D73706C7F672B65B9A78D4B
:1030E000B0A17C9161A567236C93A78DB0A17C9161
:1030F00065A1672B6C93DC011197F1F77BB1C32EAF
:10310000D42EE52EFF246C2D6C7F7370762B7BB94B
:1031100065B17C2D73706C7F672B65B9A78DB0A1ED
:103120007C9161A567236C93A78DB0A17C9165A16B
:10313000672B6C930197F1F78BB1922F9C7F837073
:10314000892B8BB985B123708C7F282B25B9A78D4E
:10315000B0A19C9181A589238C93A78DB0A19C914E
:1031600085A1892B8C93A38DB48D9C9183A1892BF0
:103170008C93FF90EF90DF90CF900895FC01A58D88
:10318000B68D9C9180A589238C938BB1962F9C7FC3
:103190008370892B8BB985B163708C7F682B65B97F
:1031A000A78DB0A19C9181A589238C93A78DB0A1F7
:1031B0009C9185A1892B8C93A58DB68D9C9184A122
:1031C000892B8C938BB1932F9C7F8370892B8BB928
:1031D00085B133708C7F382B35B9A78DB0A19C9108
:1031E00081A589238C93A78DB0A19C9185A1892B62
:1031F0008C93A58DB68D9C9180A589238C938BB1E2
:10320000942F9C7F8370892B8BB985B143708C7F01
:10321000482B45B9A78DB0A19C9181A589238C939A
:10322000A78DB0A19C9185A1892B8C93A58DB68D7E
:103230009C9184A1892B8C938BB1922F9C7F83705E
:10324000892B8BB985B123708C7F282B25B9A78D4D
:10325000B0A19C9181A589238C93A78DB0A19C914D
:1032600085A1892B8C930895FC01A58DB68D9C9129
:1032700080A589238C938BB1972F9C7F8370892B9A
:103280008BB985B173708C7F782B75B9A78DB0A180
:103290009C9181A589238C93A78DB0A19C9185A138
:1032A000892B8C938BB1962F9C7F8370892B8BB944
:1032B00085B163708C7F682B65B9A78DB0A19C9197
:1032C00081A589238C93A78DB0A19C9185A1892B81
:1032D0008C93A58DB68D9C9184A1892B8C938BB1F9
:1032E000952F9C7F8370892B8BB985B153708C7F10
:1032F000582B55B9A78DB0A19C9181A589238C939A
:10330000A78DB0A19C9185A1892B8C938BB1942F13
:103310009C7F8370892B8BB985B143708C7F482B40
:1033200045B9A78DB0A19C9181A589238C93A78DC8
:10333000B0A19C9185A1892B8C930895FC01A58D4A
:10334000B68D9C9180A589238C938BB1962F9C7F01
:103350008370892B8BB985B163708C7F682B65B9BD
:10336000A78DB0A19C9181A589238C93A78DB0A135
:103370009C9185A1892B8C93A58DB68D9C9184A160
:10338000892B8C938BB1942F9C7F8370892B8BB965
:1033900085B143708C7F482B45B9A78DB0A19C9116
:1033A00081A589238C93A78DB0A19C9185A1892BA0
:1033B0008C930895AF92BF92CF92DF92EF92FF92DB
:1033C0000F931F93CF93DF93EC017B016A01B22E21
:1033D000A32E77FD22C157FD20C1888599856817E6
:1033E00079070CF01AC18A859B85481759070CF09C
:1033F00014C1EB8DFC8D90818FA1892380838A8DF0
:10340000982F9B7FA9F58D89823059F08330B1F0D8
:103410008130D1F48FEE90E0841B950B6B017C0121
:1034200013C08FEE90E09C01261B370B79018FE3D0
:1034300091E09C01241B350B690106C08FE391E0EC
:10344000861B970B7A016C01A70160E270E0CE0148
:103450000E943419A60161E270E0CE010E94341985
:103460004B2D5A2D62E270E0CE010E943419CFC07C
:10347000813009F060C0ED89E150E33028F4F0E0DC
:10348000E95BFE4F408101C040E066E1CE010E9451
:103490009E19970143E062E0CE010E94BE1896019A
:1034A00047E066E0CE010E94BE18ED8DFE8D908152
:1034B00088A5892380838BB1837080628BB985B1A5
:1034C0008C7F826085B9EF8DF8A1908189A58923D1
:1034D0008083EF8DF8A190818DA1892B8083ED8D64
:1034E000FE8D90818CA1892B80838BB19A2D9C7F3E
:1034F0008370892B8BB985B19A2D93708C7FA92EFF
:10350000A82AA5B8EF8DF8A1908189A58923808389
:10351000EF8DF8A190818DA1892B80838BB19B2D9C
:103520009C7F8370892B8BB985B19B2D93708C7F89
:10353000B92EB82A5FC09EEF980F923020F08550C8
:10354000823008F064C00A851B8501501109288566
:10355000398521503109A601B701CE010E94D00F53
:10356000EB8DFC8D90818FA189238083ED8DFE8D65
:10357000908188A5892380838BB183708C628BB9FD
:1035800085B18C7F85B9EF8DF8A1908189A58923BC
:103590008083EF8DF8A190818DA1892B8083ED8DA3
:1035A000FE8D90818CA1892B80838BB19A2D9C7F7D
:1035B0008370892B8BB995B18A2D83709C7FA82E3F
:1035C000A92AA5B8EF8DF8A1908189A589238083C8
:1035D000EF8DF8A190818DA1892B80838BB19B2DDC
:1035E0009C7F8370892B8BB995B18B2D83709C7FC9
:1035F000B82EB92AB5B8EF8DF8A1908189A5892395
:103600008083EF8DF8A190818DA1892B8083EB8D34
:10361000FC8D90818BA1892B8083DF91CF911F91AD
:103620000F91FF90EF90DF90CF90BF90AF900895F3
:103630008AB18C6F8AB984B1836084B908958F92FE
:103640009F92AF92BF92CF92DF92EF92FF920F9331
:103650001F93CF93DF9300D000D0CDB7DEB77C01AE
:1036600080E2689F6001112496012F573C4FD901D9
:103670001B969C91917121F0842F827409F097C060
:10368000142FF701628B8091000190910101A091AC
:103690000201B091030186879787A08BB18BF60159
:1036A000EF57FC4F4489558960E070E0BA01552717
:1036B0004427D70157964D935D936D937C935A970A
:1036C000828D938DA0E0B0E0482B592B6A2B7B2B89
:1036D000D70157964D935D936D937C935A97D9017B
:1036E0001B968C91887159F4848D958DA68DB78D1C
:1036F000F701838B948BA58BB68B81E012C0803150
:1037000009F055C097012D5E3F4FD7015B968D9113
:103710009C915C970E947C12882309F448C084E045
:10372000F7018583812F8F70D70114968C9314979E
:10373000F70116821782108611861A961D921D9225
:103740001D921C921D9716FF34C015968C918130E6
:1037500071F511FF2CC0F701438954896589768979
:10376000452B462B472B09F461C040E050E0BA01DD
:10377000C7010E943B138823D1F0F7018788908C02
:10378000A18CB28CC38CD48C82E090E0A0E0B0E03D
:10379000F60180839183A283B3839E012F5F3F4F05
:1037A000B501A401C6010E94F811811104C080E096
:1037B0003DC081E03BC000E010E09801B501A401EC
:1037C000C6010E945811882391F389809A80AB80AA
:1037D000BC80D60157968C91803129F088EF9FEFFD
:1037E000AFEFBFE004C088EF9FEFA0E0B0E0881625
:1037F0009906AA06BB0688F2D70157961D921D921C
:103800001D921C925A97F701138A148A158A168AF8
:10381000848180688483C7010E94E512882339F27D
:1038200040E050E0BA01C7010E943B130F900F9097
:103830000F900F90DF91CF911F910F91FF90EF901C
:10384000DF90CF90BF90AF909F908F9008950F938F
:103850001F93CF93DF93EB010E94B8178B010E9457
:10386000A3068F3F49F00E94B817601B710B6C17BD
:103870007D07A8F380E001C081E0DF91CF911F9127
:103880000F910895CF93DF93EC010E94E5128823F6
:1038900011F01D8281E0DF91CF9108953F924F9208
:1038A0005F926F927F928F929F92AF92BF92CF92D0
:1038B000DF92EF92FF920F931F93CF93DF93CDB7D9
:1038C000DEB72C970FB6F894DEBF0FBECDBF5C01FC
:1038D000DC015B968D909C905C971696CD90DD9068
:1038E000ED90FC901997C114D104E104F10439F072
:1038F000BFEFCB1ADB0AEB0AFB0A312C07C0F4013D
:10390000C080D180E280F38033243394F401818538
:103910009285A385B4859C01AD012F5F3F4F4F4F2A
:103920005F4F29873A874B875C87260137011D82C5
:103930001E821F821886F40181859285A385B48535
:103940002D813E814F815885281739074A075B072B
:1039500008F063C089859A85AB85BC858C159D056B
:10396000AE05BF0550F482E0C82ED12CE12CF12C1D
:1039700092E0492E512C612C712C9E012F5F3F4FFC
:10398000B701A601C4010E94F811882309F445C0BB
:1039900089819A81AB81BC81892B8A2B8B2B41F049
:1039A000260137019FEF491A590A690A790A05C0A9
:1039B000C414D504E604F70491F02D813E814F81B3
:1039C00058852F5F3F4F4F4F5F4F2D833E834F836F
:1039D00058873FEFC31AD30AE30AF30AACCF0FEFBD
:1039E0001FEF2FEF3FE0B301A201C4010E94581165
:1039F000882399F0D50116964D915D916D917C913A
:103A00001997411551056105710549F0930182012E
:103A1000C4010E945811811102C080E02AC0D50162
:103A200016964D925D926D927C921997332051F0CB
:103A3000D301C2010196A11DB11DF40180839183C0
:103A4000A283B383F5018789908DA18DB28D892BD7
:103A50008A2B8B2B69F4D50157964D925D926D920E
:103A60007C925A9714968C911497806814968C9334
:103A700081E02C960FB6F894DEBF0FBECDBFDF916C
:103A8000CF911F910F91FF90EF90DF90CF90BF905B
:103A9000AF909F908F907F906F905F904F903F90EE
:103AA0000895CF92DF92EF92FF921F93CF93DF930F
:103AB000EC010E944E1C811102C080E05EC0EB8DC3
:103AC000FC8DCE80DF80E884F98482E0C81AD108BA
:103AD000E108F108058404C0CC0CDD1CEE1CFF1CC1
:103AE0000A94D2F786859785A089B189C80ED91E18
:103AF000EA1EFB1E148181E0C81AD108E108F10812
:103B0000112301F10E94D4108823B9F2E1E8F3E017
:103B1000119285E0E138F807D9F7D701C601810F86
:103B2000911DA11DB11D8093000190930101A093EF
:103B30000201B093030180915D03816080935D0376
:103B40001150DECFEB8DFC8D80E092E0A0E0B0E084
:103B5000058404C0880F991FAA1FBB1F0A94D2F7BF
:103B60004B895C896D897E89840F951FA61FB71FBD
:103B70008B8B9C8BAD8BBE8B81E0DF91CF911F91A6
:103B8000FF90EF90DF90CF9008958F929F92AF9229
:103B9000BF92CF92DF92EF92FF920F931F93CF933A
:103BA000DF93CDB7DEB72B970FB6F894DEBF0FBE0D
:103BB000CDBF7C01FC01B580B11021C1CE010196C1
:103BC0006C01FC0190E28BE08C0D91938E13FDCF84
:103BD000DA0130E087E09D91992339F19E3219F0A6
:103BE000E3E6F8E00AC08A3009F40AC138E08AE066
:103BF000F2CF3196491709F403C144914111F9CF2D
:103C0000831708F4FDC04FED490F4E3508F0F8C09A
:103C100041E0430FF601E30FF11D3FE9390F3A315F
:103C200008F490529083342FD6CF8981803209F4E2
:103C3000E7C0A22E8B01FB01838D948DF701948F39
:103C4000838FFB01168217821086118612861386D7
:103C500014861586912CF80182859385A485B585F7
:103C6000438954896589768984179507A607B7071C
:103C700008F060C025E0B695A795979587952A9599
:103C8000D1F7F82FFF708F2EF8018581823008F46C
:103C9000B7C0C8010E94A90697FDB2C0F80182858D
:103CA0009385A485B5854F96A11DB11D8287938705
:103CB000A487B587F0E28F9EC0011124BC016F5725
:103CC0007C4F6115710509F49BC0FB012081222303
:103CD00019F0253EC1F427C091100EC0F701828A69
:103CE0004091000150910101609102017091030126
:103CF00046875787608B718BFC01EF57FC4F8081A3
:103D0000811113C015C04BE050E0C6010E94F83687
:103D1000892B09F0A0CF8A2D8073803309F470C0FD
:103D20004A2D682D67C09920C9F29924939493CFA6
:103D3000992493948A2D8271823109F061C099206F
:103D4000B9F0F701668577858089918941E00E9405
:103D50000F11882309F454C0F7010289F0E20F9F84
:103D6000800111240F571C4F0115110579F448C02B
:103D7000F8018581823009F443C0C8010E94511DB9
:103D80008823F1F1F701128A01E813E080E2F801DB
:103D900011928A95E9F78BE0F601D80101900D9216
:103DA0008A95E1F7E0915B03F0915C03309739F07D
:103DB000B801625F7F4FC8014096099509C081E252
:103DC00098E2F801918B808B80E098E09787868756
:103DD000F80180899189938B828B918F808F868562
:103DE0009785978B868B0E94D410882349F04A2DA3
:103DF000F7016289C7010E941F1BB82E01C0B12CB8
:103E00008B2D2B960FB6F894DEBF0FBECDBFDF9182
:103E1000CF911F910F91FF90EF90DF90CF90BF90C7
:103E2000AF909F908F9008958FB7F89480916B0317
:103E30008FBF0895CF93DF93EC0180916C038111C4
:103E400009C081E080936C03809120069091210647
:103E50000E94A60660E08C81DF91CF910C9432170E
:103E600061E0FC0184810E94321780916C03811112
:103E700010926C030895CF93DF93EC018E81882319
:103E800089F08F8198859C012F5F3F4F38872F8362
:103E90008230924018F40E94A306F3CFCE010E9414
:103EA000301F1E82DF91CF910895CF92DF92FF9253
:103EB0000F931F93CF93DF9300D000D0CDB7DEB721
:103EC0006C01F62E29833A834B835C830E943B1F4F
:103ED000C6010E941A1F6CE271E0C6010E94271CF5
:103EE0008F2D80640E949C0608E110E05C814B816C
:103EF0003A812981DA01C901002E04C0B695A7953F
:103F0000979587950A94D2F729833A834B835C83EC
:103F10000E949C060850110929813A814B815C81DD
:103F2000083F8FEF180731F7FF2029F0E8E0FE1275
:103F300004C087E803C085E901C08FEF0E949C069A
:103F400010E00E94A306F601828787FF04C01F3F8E
:103F500011F01F5FF6CF0F900F900F900F90DF9131
:103F6000CF911F910F91FF90DF90CF900895AF9266
:103F7000BF92CF92DF92EF92FF920F931F93CF9356
:103F8000DF93EC016901C801820F931F81309240D9
:103F900008F070C08E81882371F088819981AA8190
:103FA000BB81481759076A077B0729F48F819885D9
:103FB000C816D906B0F5488359836A837B838B85FD
:103FC000833039F089E0440F551F661F771F8A95AB
:103FD000D1F79A01AB0161E1CE010E94551F882300
:103FE00019F083E08D8346C00E94B8175B010E94E0
:103FF000A3068A878F3F49F40E94B8176A197B0984
:104000006D327140A0F38FE003C08E3F31F08DE040
:104010008D83CE010E94301F2DC018861F8281E043
:104020008E838F8198858C159D0540F40E94A30690
:104030008F819885019698878F83F3CF6701E00E73
:10404000F11ECE14DF0431F00E94A306F601819325
:104050006F01F7CF8F819885080F191F18870F837D
:104060008985882319F00115124048F0CE010E947D
:104070003B1F05C0CE010E94301F80E001C081E0DF
:10408000DF91CF911F910F91FF90EF90DF90CF9034
:10409000BF90AF900895EF92FF920F931F93CF932D
:1040A000DF93EC017901411551056105710511F4AA
:1040B00082E13CC08B85833039F089E0440F551F85
:1040C000661F771F8A95D1F79A01AB0168E1CE018F
:1040D0000E94551F882311F084E028C08EEF0E94B3
:1040E0009C0687018EEFF81AF80181918F010E94DA
:1040F0009C060E151F05C1F78FEF0E949C068FEFDF
:104100000E949C060E94A3068A878F71853031F039
:1041100081E18D83CE010E94301F09C068E572E005
:10412000CE010E94271C811107C085E18D83CE013D
:104130000E94301F80E013C020E030E0A9016DE054
:10414000CE010E94551F811104C00E94A30688233E
:1041500011F084E1EBCFCE010E94301F81E0DF91AE
:10416000CF911F910F91FF90EF900895AF92BF9262
:10417000CF92DF92EF92FF920F931F93CF93DF9333
:10418000FC01A38DB48D9C9187A189238C93A58D6F
:10419000B68D9C9180A589238C93828D8230D9F035
:1041A0009BEF980F9230B8F0811113C08BB18370E0
:1041B0008BB985B18C7F85B9A78DB0A19C9181A564
:1041C00089238C93A78DB0A19C9185A1892B8C9379
:1041D00009C0833039F48BB183708C628BB985B19F
:1041E0008C7F07C08BB1837080628BB985B18C7F67
:1041F000826085B9A78DB0A19C9181A589238C93FC
:10420000A78DB0A19C9185A1892B8C93A58DB68D8E
:104210009C9184A1892B8C938BB1972F9C7FB92E75
:104220008370892B8BB985B1A72FA370AA2E8C7FA1
:104230008A2B85B9C78DD0A1988181A589238883D0
:10424000C78DD0A1988185A1892B88838BB1C62F7A
:10425000CC7F83708C2B8BB985B1D62FD3708C7F9C
:104260008D2B85B9078D10A1D8019C9181A589233B
:104270008C93078D10A1D8019C9185A1892B8C93DB
:10428000215031094109510969017A0186E0F6940A
:10429000E794D794C7948A95D1F7C601761348C19D
:1042A000019708F465C060E1A78DB0A1CC9171A51C
:1042B0007C237C93A78DB0A1CC9175A17C2B7C93A2
:1042C000A78DB0A1CC9171A57C237C93A78DB0A1C3
:1042D000CC9175A17C2B7C93A78DB0A1CC9171A5BD
:1042E0007C237C93A78DB0A1CC9175A17C2B7C9372
:1042F000A78DB0A1CC9171A57C237C93A78DB0A193
:10430000CC9175A17C2B7C93A78DB0A1CC9171A58C
:104310007C237C93A78DB0A1CC9175A17C2B7C9341
:10432000A78DB0A1CC9171A57C237C93A78DB0A162
:10433000CC9175A17C2B7C93A78DB0A1CC9171A55C
:104340007C237C93A78DB0A1CC9175A17C2B7C9311
:10435000A78DB0A1CC9171A57C237C93A78DB0A132
:10436000CC9175A17C2B7C93615009F09DCF98CFA7
:104370002F732150C8F0A78DB0A19C9181A58923EE
:104380008C93A78DB0A19C9185A1892B8C93A78D2F
:10439000B0A19C9181A589238C93A78DB0A19C91FC
:1043A00085A1892B8C93E5CFA38DB48D9C9183A19E
:1043B000892B8C93DF91CF911F910F91FF90EF90FC
:1043C000DF90CF90BF90AF9008956BB163706B2971
:1043D0006BB965B16C7F6A2965B9078D10A1D801E9
:1043E000FC9061A56F216C93078D10A1D801FC9002
:1043F00065A16F296C936BB163706C2B6BB965B160
:104400006C7F6D2B65B9078D10A1D801FC9061A55B
:104410006F216C93078D10A1D801FC9065A16F29C5
:104420006C936BB163706B296BB965B16C7F6A2952
:1044300065B9078D10A1D801FC9061A56F216C931F
:10444000078D10A1D801FC9065A16F296C936BB109
:1044500063706C2B6BB965B16C7F6D2B65B9078D83
:1044600010A1D801FC9061A56F216C93078D10A15C
:10447000D801FC9065A16F296C936BB163706B29B7
:104480006BB965B16C7F6A2965B9078D10A1D80138
:10449000FC9061A56F216C93078D10A1D801FC9051
:1044A00065A16F296C936BB163706C2B6BB965B1AF
:1044B0006C7F6D2B65B9078D10A1D801FC9061A5AB
:1044C0006F216C93078D10A1D801FC9065A16F2915
:1044D0006C936BB163706B296BB965B16C7F6A29A2
:1044E00065B9078D10A1D801FC9061A56F216C936F
:1044F000078D10A1D801FC9065A16F296C936BB159
:1045000063706C2B6BB965B16C7F6D2B65B9078DD2
:1045100010A1D801FC9061A56F216C93078D10A1AB
:10452000D801FC9065A16F296C93715009F04DCFB3
:10453000019710F070E149CF2F73215008F434CF68
:104540008BB183708B298BB985B18C7F8A2985B912
:10455000478D50A1DA019C9181A589238C93478DC9
:1045600050A1DA019C9185A1892B8C938BB183702A
:104570008C2B8BB985B18C7F8D2B85B9478D50A144
:10458000DA019C9181A589238C93478D50A1DA0192
:104590009C9185A1892B8C93D0CFEF92FF920F93A2
:1045A0001F93CF93DF93EC017B018A8D811129C08A
:1045B0002D892150233078F430E0F901E05BFE4F83
:1045C0008081482F50E0220F331FF901E65BFE4F38
:1045D0000081118104C000E010E040E050E0EB8D6C
:1045E000FC8D30812FA12323208360E270E0CE0177
:1045F0000E943419A80161E270E0CE010E943419D2
:1046000012C08150863078F40A851B85015011094B
:10461000288539852150310940E050E060E070E0A4
:10462000CE010E94D00F20E03CE241E050E0B70113
:10463000CE01DF91CF911F910F91FF90EF900C94DD
:10464000B620CF93DF93EC01EB8DFC8D90818FA191
:1046500089238083288539852150310945E064E02C
:10466000CE010E94BE182A853B852150310949E0C0
:1046700068E0CE010E94BE18EB8DFC8D90818BA16D
:10468000892B8083DF91CF9108958F929F92AF9273
:10469000BF92CF92DF92EF92FF920F931F93CF932F
:1046A000DF93EC014701121613060CF06BC01016D5
:1046B00011060CF067C0A885B9856A177B070CF056
:1046C00061C0CA84DB844C155D050CF05BC05B01E6
:1046D000A20EB31EC501019797FD54C07A01E00EEA
:1046E000F11EF7013197F7FD4DC077FF49C060E03B
:1046F00070E057FD02C0780102C040E050E08A1728
:104700009B072CF0CD0101975D01A61AB70AEC15A5
:10471000FD052CF0F60131977601E41AF50A8F01B8
:104720009C01CE010E94D00F9701D5010E948835CF
:104730009B01AC01B401CE010E94B6208A8D81118B
:1047400010C00A851B850150110928853985215023
:10475000310940E050E060E070E0CE010E94D00FEF
:1047600011C0CE01DF91CF911F910F91FF90EF907B
:10477000DF90CF90BF90AF909F908F900C942123AB
:104780005901B7CFDF91CF911F910F91FF90EF901B
:10479000DF90CF90BF90AF909F908F900895CF9271
:1047A000DF92EF92FF920F931F93CF93DF93EC0171
:1047B0006801121613060CF04FC077FD4DC08885B6
:1047C0009985681779070CF047C0EA85FB854E1775
:1047D0005F070CF041C07A01E20EF31E8701015021
:1047E000110917FD39C057FF35C040E050E00E17E2
:1047F0001F0734F08F01015011097F01E41AF50AF7
:104800009B01CE010E94D00F9701FF0C440B550B6A
:10481000B601CE010E94B6208A8D811110C00A8592
:104820001B8501501109288539852150310940E047
:1048300050E060E070E0CE010E94D00F0DC0CE01CC
:10484000DF91CF911F910F91FF90EF90DF90CF906C
:104850000C9421237901CBCFDF91CF911F910F9140
:10486000FF90EF90DF90CF900895CF92DF92EF927C
:10487000FF920F931F93CF93DF93EC016801121601
:1048800013060CF04EC057FD4CC08A859B85481717
:1048900059070CF046C0E885F9856E177F070CF0C4
:1048A00040C07B01E20EF31EC701019797FD39C09E
:1048B00077FF35C060E070E08E179F072CF0CF01C6
:1048C00001977F01E61AF70A8A019C01CE010E9436
:1048D000D00F9701FF0C440B550BB601CE010E947F
:1048E000B6208A8D811110C00A851B8501501109DF
:1048F000288539852150310940E050E060E070E0C2
:10490000CE010E94D00F0DC0CE01DF91CF911F913B
:104910000F91FF90EF90DF90CF900C9421237901BD
:10492000CBCFDF91CF911F910F91FF90EF90DF9050
:10493000CF900895CF92DF92EF92FF920F931F9343
:10494000CF93DF93CDB7DEB7C65AD1090FB6F8942F
:10495000DEBF0FBECDBF8091800380FF7EC082E8A6
:10496000E3E5F1E0DE01119601900D928A95E1F701
:10497000809180038E7F8093800383E080939A06EA
:10498000E12CF12C08E110E026EC30E047E250E0A9
:1049900064E170E086E896E00E94452384E190E0BF
:1049A000909393068093920687E290E09093950609
:1049B000809394068FEF9FEF9093990680939806CB
:1049C0009093970680939606BE016C557F4F809119
:1049D00074030E94E7070E940C2886E892E00E9478
:1049E0000C288091730321E030E02C0F3D1F4AE03A
:1049F000849F200D311D1124C9010E940C2886E8D6
:104A000092E00E940C28209171033091720340E0E3
:104A100050E0CD55DF4F1882C35AD04003E810E074
:104A20000C0F1D1F005E1F4F8AE0C82ED12CE12CF9
:104A3000F12CCA01B901A70196010E946635605D9B
:104A4000F80162938F01211531054105510589F760
:104A5000BF0186E896E00E94C5168091800381FF21
:104A600037C08D7F8093800384E080939A06E12C89
:104A7000F12C00E210E028E430E04FE450E067E180
:104A800070E086E896E00E94452387E190E09093ED
:104A90009306809392068FE490E09093950680931E
:104AA00094068FEF9FEF90939906809398069093CA
:104AB000970680939606BE016C557F4F80917503D3
:104AC0000E94E7070E940C2888E892E00E940C28C8
:104AD0008091800382FF37C08B7F8093800384E0C6
:104AE00080939A06E12CF12C00E210E028E430E0FB
:104AF0004FE450E06FE570E086E896E00E944523C1
:104B00008FE590E090939306809392068FE490E077
:104B100090939506809394068FEF9FEF909399065C
:104B2000809398069093970680939606BE016C55E5
:104B30007F4F809176030E94E7070E940C2888E847
:104B400092E00E940C288091800383FF33C0877F0E
:104B50008093800384E080939A06E12CF12C00E29C
:104B600010E020E330E04FE450E067EA70E086E8D0
:104B700096E00E94452387EA90E090939306809305
:104B800092068FE490E090939506809394068FEFC1
:104B90009FEF909399068093980690939706809341
:104BA0009606BE016C557F4F809177030E94E70700
:104BB0000E940C28CA55DF4F0FB6F894DEBF0FBE17
:104BC000CDBFDF91CF911F910F91FF90EF90DF90BC
:104BD000CF9008950F931F93837080939B0620912D
:104BE0008A0630918B0640918C0650918D0681305B
:104BF00059F0833049F030938F0620938E065093FE
:104C000091064093900608C050938F0640938E06FD
:104C10003093910620939006E091A106F091A206B0
:104C200090818091AD06892380838091A0068B7F3F
:104C300049F5E0919B06E150E33040F4F0E0EE0FDF
:104C4000FF1FEC51FE4F4081518102C040E350E113
:104C500063E070E086E896E00E94341900919006C7
:104C6000109191060150110920918E0630918F0606
:104C70002150310940E050E060E070E086E896E0C5
:104C80000E94D00F8091A0068130A1F4E0919B0694
:104C9000E150E33028F4F0E0EF51FE4F408101C0D5
:104CA00040E066E186E896E00E949E1986E896E07C
:104CB0000E9421238091A0068B7F823021F5E09114
:104CC0009B06E43028F4F0E0E352FE4F408102C03E
:104CD00040E050E066E386E896E00E949E1900916D
:104CE0009006109191060150110920918E06309185
:104CF0008F062150310940E050E060E070E086E826
:104D000096E00E94D00F8091A006833021F5E091BB
:104D10009B06E43028F4F0E0E752FE4F408102C0E9
:104D200040E050E066E386E896E00E949E1900911C
:104D30009006109191060150110920918E06309134
:104D40008F062150310940E050E060E070E086E8D5
:104D500096E00E94D00F8091A006853021F5E09169
:104D60009B06E43028F4F0E0EB52FE4F408102C095
:104D700040E050E066E386E896E00E949E190091CC
:104D80009006109191060150110920918E063091E4
:104D90008F062150310940E050E060E070E086E885
:104DA00096E00E94D00F1F910F910895E091A10607
:104DB000F091A20690818091A906892B8083E091D1
:104DC000A506F091A60690818091AB06892B808381
:104DD000E091A706F091A80690818091AC06892BFE
:104DE00080838091B106882371F060E00E943217C1
:104DF00062E070E080E090E00E947E1761E08091C8
:104E0000B1060E943217E091A106F091A2069081AE
:104E10008091AD0689238083E091A306F091A406DA
:104E200090818091AE06892380838BB183708BB98A
:104E300085B18C7F85B9E091A506F091A606908199
:104E40008091AF0689238083E091A506F091A606A4
:104E500090818091AB06892B808383E0E091A50649
:104E6000F091A60620819091AF0692239083E09165
:104E7000A506F091A60620819091AB06922B908317
:104E8000815061F7E091A106F091A2069081809196
:104E9000A906892B80830895E6E8F6E0A1A1B2A1D6
:104EA0009C9182A589238C9300C000C000C00000A3
:104EB00099B123B1A1A1B2A13C9186A1832B8C937E
:104EC0002370892F8C7F822B0895CF92DF92EF92EF
:104ED000FF92CF93C82FE091A106F091A206908196
:104EE0008091AD0689238083E091A306F091A4060A
:104EF00090818091AE06892380838BB19C2F9C7F0B
:104F00008370892B8BB985B19C2F93708C7F892BF3
:104F100085B9E091A506F091A60690818091AF0633
:104F200089238083E091A506F091A6069081809167
:104F3000AB06892B80838AB183708AB984B18C7F58
:104F400084B9E091A306F091A40690818091AA060D
:104F5000892B808383EC90E00197F1F70E944C2726
:104F6000C82ED12CE12CF12CFE2CED2CDC2CCC24E9
:104F70000E944C27C82AFE2CED2CDC2CCC240E944D
:104F80004C27C82AFE2CED2CDC2CCC240E944C276C
:104F9000C82ACF3E39F4FE2CED2CDC2CCC240E9408
:104FA0004C27C82AE091A106F091A2069081809139
:104FB000A906892B808386E896E00E94181B66E983
:104FC00070E080E090E00E947E17C701B601CF91AB
:104FD000FF90EF90DF90CF90089590E0FC01E358B0
:104FE000F74F2491FC01E556F74F8491882399F0FF
:104FF00090E0880F991FFC01ED58F74FA591B491EF
:10500000FC01EF56F74F859194918FB7F894EC918E
:10501000E22BEC938FBF0895BC0186E896E00C94D8
:10502000C516E0918406F0918506309721F081E065
:105030009581911101C080E008956F927F928F92C7
:105040009F92AF92BF92CF92DF92EF92FF920F9317
:105050001F93CF93DF93CDB7DEB7C754D1090FB6F7
:10506000F894DEBF0FBECDBF6C015B0119A218A280
:105070008EEF91E09F8F8E8F1BA21C821B829A83E2
:1050800089831E82812C912C7E018EE1E80EF11C19
:105090000CE416E0772473949401F601E80DF91DF1
:1050A00080818F3211F42F5F3F4FFE01FB9680E02D
:1050B00090E0D601A20FB31F4C914F3249F0442328
:1050C00039F001962F5F3F4F41938C30910589F75E
:1050D000EBE3F0E0EC0FFD1FE80FF91F1082F60183
:1050E000E20FF31F80818F3211F42F5F3F4F490190
:1050F000F601E20FF31F662463948081811101C0E1
:10510000612C20E030E0462D4725BE01655C7F4FD5
:10511000C801F5010995811109C0F6E00C341F079B
:1051200019F0C8010E94421C80E029C06620C1F02D
:1051300021E0AE01455C5F4FB801C7010E94C51D6B
:10514000682E86E00C341807A1F0C8010E94421CAA
:10515000662051F3902F812F8701E92EF82E9CCFE6
:10516000E6E00C341E0719F0C8010E94421C81E0E1
:1051700006C06620C9F28E010F5F1F4FEBCFC95BDF
:10518000DF4F0FB6F894DEBF0FBECDBFDF91CF91DA
:105190001F910F91FF90EF90DF90CF90BF90AF9055
:1051A0009F908F907F906F9008958F929F92AF9273
:1051B000BF92CF92DF92EF92FF92CF93DF93C82FEF
:1051C00082E296E09093820580938105CC2369F179
:1051D000C53010F080E00DC140E060E070E0CB0130
:1051E0000E940F118823B1F320E1C29FC001112456
:1051F0008F589C4FFC01E254FE4F20812F7751F7CE
:105200003C9640815181628173814436510561052C
:10521000710500F33497C080D180E280F380C1141F
:10522000D104E104F10421F4D5CFC12CD12C7601B5
:1052300040E0C701B6010E940F11882359F2809106
:105240008C0390918D038115924021F6A0919103DA
:10525000AA2309F4BFCF60918F0370919003611569
:10526000710509F4B7CF20918E03222309F4B2CF40
:10527000A09340062093320680E030E0E1E0F0E0C9
:10528000C82FAF01082E02C0440F551F0A94E2F741
:105290002417350741F0982F8F5F983089F789E000
:1052A00080933B0697CF80933B06209197033091E4
:1052B00098032115310519F040E050E008C0209115
:1052C000A5033091A6034091A7035091A803209312
:1052D0003306309334064093350650933606460124
:1052E0005701860E971EA11CB11C80924106909218
:1052F0004206A0924306B0924406E0919203F091D8
:105300009303F0934706E0934606B0E00E943837D7
:10531000860E971EA81EB91E8092480690924906D6
:10532000A0924A06B0924B0685E0EE0FFF1F8A95C9
:10533000E1F7E150FE4FEF2FFF27E6958E0E9F1EFF
:10534000A11CB11C80923C0690923D06A0923E06A4
:10535000B0923F06209194033091950321153105B9
:1053600021F0A90160E070E008C04091A1035091D4
:10537000A2036091A3037091A403D701C601881909
:105380009909AA09BB09840F951FA61FB71F04C05E
:10539000B695A79597958795CA95D2F780933706C6
:1053A00090933806A0933906B0933A06853F2FE0D4
:1053B0009207A105B10510F48CE018C0853F9F4FFE
:1053C000A105B10510F480E111C08091AD03909169
:1053D000AE03A091AF03B091B003809348069093C1
:1053E0004906A0934A06B0934B0680E28093450697
:1053F00081E0DF91CF91FF90EF90DF90CF90BF9051
:10540000AF909F908F900895CF93DF93CDB7DEB785
:1054100064970FB6F894DEBF0FBECDBF789484B505
:10542000826084BD84B5816084BD85B5826085BDA0
:1054300085B5816085BD80916E00816080936E002E
:105440001092810080918100826080938100809120
:1054500081008160809381008091800081608093D1
:1054600080008091B10084608093B1008091B00091
:1054700081608093B00080917A00846080937A008C
:1054800080917A00826080937A0080917A008160B6
:1054900080937A0080917A00806880937A001092DD
:1054A000C1008BE492E00E94F90790E08053984F8E
:1054B00090937203809371038CE08093730386E46E
:1054C00092E00E94F907809374038EE492E00E94B8
:1054D000F9078093750381E592E00E94F9078093B4
:1054E000760384E592E00E94F90780937703109297
:1054F00079031092780380E090E00E942237843490
:1055000009F077C081E090E00E942237843509F0ED
:1055100070C07DE6E72E73E0F72E02E010E0C801D0
:105520000E942237F70181937F010F5F1F4F0631E1
:105530001105A9F789E69FEF90937F0380937E037F
:10554000809180038E608160809380033090760329
:1055500020907303E22DF0E0EE0FFF1FE85FFE4F97
:105560008081918180907403912CA12CB12C880EA4
:10557000991EA11CB11CC0907103D0907203F6015A
:10558000E05DF740DF0120E833E341EE51E00E94A7
:1055900038377B018C0140907703512C612C712CA2
:1055A00020E9421A22EC520A2BE8620A27EC720A1E
:1055B0002091750330E0A0E1BEE00E944337460E23
:1055C000571E681E791E232D30E0ACE3B0E00E9428
:1055D0004337460E571E681E791EF695E795F695D9
:1055E000E79581E08E0F33E0C322DD24CD28E9F07A
:1055F00020C064E480E090E00E942A3764E581E006
:1056000090E00E942A374DE6E42E43E0F42E02E0BB
:1056100010E0F70161917F01C8010E942A370F5FF6
:105620001F4F06311105A9F785CF22E0221508F09A
:105630008E2F4E0C5F1C601E711EA5019401280F59
:10564000311D411D511D60E871E581E090E00E942F
:105650003635460E571E681E791E40927A035092C8
:105660007B0360927C0370927D03E0919305F0913F
:10567000940582E08083E0918F05F091900510827F
:10568000E0919105F091920583E3808310929B0550
:10569000E0919705F091980586E08083E09195056B
:1056A000F0919605808180618083E0919505F0916D
:1056B0009605808188608083E0919505F09196053C
:1056C000808180688083E0919505F09196058081C6
:1056D0008F7D808384E690E0A0E0B0E08093870532
:1056E00090938805A0938905B0938A0566E173E0DD
:1056F00083E895E00E94A11667E572E083E895E0F3
:105700000E94C5160E94D62684E00E946527611576
:1057100070488105910549F083ED0E946527613449
:1057200043E9740709F0A5C010C1E091A106F0910A
:10573000A20690818091AD0689238083E091A30623
:10574000F091A40690818091AE06892380838BB16D
:105750008370886B8BB985B18C7F816085B9E0914E
:10576000A506F091A60690818091AF0689238083DB
:10577000E091A506F091A60690818091AB06892B59
:105780008083E091A306F091A40690818091AA06FF
:10579000892B808383E290E0FC013197F1F72BB1F4
:1057A0002C6F2BB925B1236025B9E091A506F091A6
:1057B000A60630812091AF0623232083E091A50621
:1057C000F091A60630812091AB06232B2083FC01AB
:1057D0003197F1F72BB1237020682BB925B12360E5
:1057E00025B9E091A506F091A60630812091AF067B
:1057F00023232083E091A506F091A6063081209115
:10580000AB06232B20830197F1F78BB1837084655E
:105810008BB985B1836085B9E091A506F091A606A4
:1058200090818091AF0689238083E091A506F09155
:10583000A60690818091AB06892B8083E091A1061A
:10584000F091A20690818091A906892B80836CE259
:1058500071E080E090E00E947E1780ED0E94652755
:10586000611571058949910509F056CF07E513E8DF
:1058700074C06838744909F46BC08FEE0E946527C4
:105880006732734909F467C0E091A106F091A2065E
:1058900090818091AD0689238083E091A306F091E9
:1058A000A40690818091AE06892380838BB183709A
:1058B0008BB985B18C7F85B9E091A506F091A606DC
:1058C00090818091AF0689238083E091A506F091B5
:1058D000A60690818091AB06892B8083E091A50676
:1058E000F091A60690818091AF0689238083E09194
:1058F000A506F091A60690818091AB06892B808346
:105900008AB183708AB984B18C7F84B9E091A3068F
:10591000F091A40690818091AA06892B80830E9431
:105920004C27F82E0E944C27082F86E896E00E940C
:10593000181BE091A106F091A20680819091A90622
:10594000982B908310E01F2908C001E413E905C0DB
:1059500008E814E902C007E213E90E94D62668ECC1
:1059600070E080E090E00E947E170532F3E91F07A7
:1059700021F0083223E9120761F51092A006E091A8
:10598000A106F091A20690818091AD0689238083C3
:105990000EE012E0F80165917491F801329645919C
:1059A00054916F3F710531F4BA0180E090E00E949C
:1059B0007E1704C086E896E00E9434190C5F1F4FE2
:1059C00032E00A3D130731F780919B060E94EA25D9
:1059D00053C2013443E9140709F096C082E0809372
:1059E000A006E091A106F091A20690818091AD06FB
:1059F0008923808380E0E82FF0E0EE55FE4F9491FC
:105A000012E0180FE1E0E80FF0E0EE55FE4F649170
:105A10009F3F39F470E080E090E00E947E17812F74
:105A20006FC0E091A106F091A20630812091AD06F1
:105A300023232083E091A306F091A40630812091D6
:105A4000AE06232320832BB1392F3C7F2370232BD9
:105A50002BB925B1E92FE370922F9C7FE92BE5B993
:105A6000E091A506F091A60620819091AF069223C1
:105A70009083E091A506F091A60620819091AB0657
:105A8000922B9083E091A306F091A406208190913F
:105A9000AA06922B9083860F8E5FE12FE81729F1DB
:105AA00021E02E0FF0E0EE55FE4FE4919BB13E2F2A
:105AB0003C7F9370932B9BB995B1E3709C7FE92B4E
:105AC000E5B9E091A506F091A60630819091AF0668
:105AD00093239083E091A506F091A60630819091E2
